{
  "contractName": "Defi_Bank",
  "abi": [
    {
      "inputs": [
        {
          "internalType": "contract Token",
          "name": "_token",
          "type": "address"
        }
      ],
      "payable": false,
      "stateMutability": "nonpayable",
      "type": "constructor"
    },
    {
      "anonymous": false,
      "inputs": [
        {
          "indexed": true,
          "internalType": "address",
          "name": "user",
          "type": "address"
        },
        {
          "indexed": false,
          "internalType": "uint256",
          "name": "amountDeposited",
          "type": "uint256"
        },
        {
          "indexed": false,
          "internalType": "uint256",
          "name": "totalAmount",
          "type": "uint256"
        },
        {
          "indexed": false,
          "internalType": "uint256",
          "name": "time",
          "type": "uint256"
        }
      ],
      "name": "Deposit",
      "type": "event"
    },
    {
      "anonymous": false,
      "inputs": [
        {
          "indexed": true,
          "internalType": "address",
          "name": "user",
          "type": "address"
        },
        {
          "indexed": false,
          "internalType": "uint256",
          "name": "depositTime",
          "type": "uint256"
        },
        {
          "indexed": false,
          "internalType": "uint256",
          "name": "interest",
          "type": "uint256"
        }
      ],
      "name": "EarnInterest",
      "type": "event"
    },
    {
      "anonymous": false,
      "inputs": [
        {
          "indexed": true,
          "internalType": "address",
          "name": "user",
          "type": "address"
        },
        {
          "indexed": false,
          "internalType": "uint256",
          "name": "amountWithdrawn",
          "type": "uint256"
        },
        {
          "indexed": false,
          "internalType": "uint256",
          "name": "totalAmount",
          "type": "uint256"
        },
        {
          "indexed": false,
          "internalType": "uint256",
          "name": "time",
          "type": "uint256"
        }
      ],
      "name": "Withdraw",
      "type": "event"
    },
    {
      "constant": true,
      "inputs": [
        {
          "internalType": "address",
          "name": "",
          "type": "address"
        },
        {
          "internalType": "uint256",
          "name": "",
          "type": "uint256"
        }
      ],
      "name": "depositUpdateAmount",
      "outputs": [
        {
          "internalType": "uint256",
          "name": "",
          "type": "uint256"
        }
      ],
      "payable": false,
      "stateMutability": "view",
      "type": "function"
    },
    {
      "constant": true,
      "inputs": [
        {
          "internalType": "address",
          "name": "",
          "type": "address"
        },
        {
          "internalType": "uint256",
          "name": "",
          "type": "uint256"
        }
      ],
      "name": "depositUpdateTime",
      "outputs": [
        {
          "internalType": "uint256",
          "name": "",
          "type": "uint256"
        }
      ],
      "payable": false,
      "stateMutability": "view",
      "type": "function"
    },
    {
      "constant": true,
      "inputs": [
        {
          "internalType": "address",
          "name": "",
          "type": "address"
        }
      ],
      "name": "earningInterest",
      "outputs": [
        {
          "internalType": "bool",
          "name": "",
          "type": "bool"
        }
      ],
      "payable": false,
      "stateMutability": "view",
      "type": "function"
    },
    {
      "constant": false,
      "inputs": [],
      "name": "deposit",
      "outputs": [],
      "payable": true,
      "stateMutability": "payable",
      "type": "function"
    },
    {
      "constant": false,
      "inputs": [
        {
          "internalType": "uint256",
          "name": "_amount",
          "type": "uint256"
        }
      ],
      "name": "withdraw",
      "outputs": [],
      "payable": false,
      "stateMutability": "nonpayable",
      "type": "function"
    },
    {
      "constant": false,
      "inputs": [],
      "name": "earnInterest",
      "outputs": [
        {
          "internalType": "uint256",
          "name": "",
          "type": "uint256"
        }
      ],
      "payable": false,
      "stateMutability": "nonpayable",
      "type": "function"
    }
  ],
  "bytecode": "0x608060405234801561001057600080fd5b50604051610e9a380380610e9a8339818101604052602081101561003357600080fd5b8101908080519060200190929190505050806000806101000a81548173ffffffffffffffffffffffffffffffffffffffff021916908373ffffffffffffffffffffffffffffffffffffffff16021790555050610e06806100946000396000f3fe6080604052600436106100555760003560e01c80632e1a7d4d1461005a578063492b3c85146100955780635ab94f2914610104578063769eb76c14610173578063d0e30db01461019e578063e8c0d089146101a8575b600080fd5b34801561006657600080fd5b506100936004803603602081101561007d57600080fd5b8101908080359060200190929190505050610211565b005b3480156100a157600080fd5b506100ee600480360360408110156100b857600080fd5b81019080803573ffffffffffffffffffffffffffffffffffffffff16906020019092919080359060200190929190505050610595565b6040518082815260200191505060405180910390f35b34801561011057600080fd5b5061015d6004803603604081101561012757600080fd5b81019080803573ffffffffffffffffffffffffffffffffffffffff169060200190929190803590602001909291905050506105c3565b6040518082815260200191505060405180910390f35b34801561017f57600080fd5b506101886105f1565b6040518082815260200191505060405180910390f35b6101a6610987565b005b3480156101b457600080fd5b506101f7600480360360208110156101cb57600080fd5b81019080803573ffffffffffffffffffffffffffffffffffffffff169060200190929190505050610db1565b604051808215151515815260200191505060405180910390f35b60011515600360003373ffffffffffffffffffffffffffffffffffffffff1673ffffffffffffffffffffffffffffffffffffffff16815260200190815260200160002060009054906101000a900460ff1615151461026e57600080fd5b600160003373ffffffffffffffffffffffffffffffffffffffff1673ffffffffffffffffffffffffffffffffffffffff16815260200190815260200160002060018060003373ffffffffffffffffffffffffffffffffffffffff1673ffffffffffffffffffffffffffffffffffffffff1681526020019081526020016000208054905003815481106102fc57fe5b906000526020600020015481111561031357600080fd5b60008190503373ffffffffffffffffffffffffffffffffffffffff166108fc829081150290604051600060405180830381858888f1935050505015801561035e573d6000803e3d6000fd5b50600081600160003373ffffffffffffffffffffffffffffffffffffffff1673ffffffffffffffffffffffffffffffffffffffff16815260200190815260200160002060018060003373ffffffffffffffffffffffffffffffffffffffff1673ffffffffffffffffffffffffffffffffffffffff1681526020019081526020016000208054905003815481106103f057fe5b9060005260206000200154039050600160003373ffffffffffffffffffffffffffffffffffffffff1673ffffffffffffffffffffffffffffffffffffffff168152602001908152602001600020819080600181540180825580915050906001820390600052602060002001600090919290919091505550600260003373ffffffffffffffffffffffffffffffffffffffff1673ffffffffffffffffffffffffffffffffffffffff1681526020019081526020016000204290806001815401808255809150509060018203906000526020600020016000909192909190915055506000811415610532576000600360003373ffffffffffffffffffffffffffffffffffffffff1673ffffffffffffffffffffffffffffffffffffffff16815260200190815260200160002060006101000a81548160ff0219169083151502179055505b3373ffffffffffffffffffffffffffffffffffffffff167f02f25270a4d87bea75db541cdfe559334a275b4a233520ed6c0a2429667cca9483834260405180848152602001838152602001828152602001935050505060405180910390a2505050565b600160205281600052604060002081815481106105ae57fe5b90600052602060002001600091509150505481565b600260205281600052604060002081815481106105dc57fe5b90600052602060002001600091509150505481565b60008060008090505b6001600260003373ffffffffffffffffffffffffffffffffffffffff1673ffffffffffffffffffffffffffffffffffffffff168152602001908152602001600020805490500381101561077257600260003373ffffffffffffffffffffffffffffffffffffffff1673ffffffffffffffffffffffffffffffffffffffff168152602001908152602001600020818154811061069157fe5b9060005260206000200154600260003373ffffffffffffffffffffffffffffffffffffffff1673ffffffffffffffffffffffffffffffffffffffff16815260200190815260200160002060018301815481106106e957fe5b906000526020600020015403662386f26fc10000600160003373ffffffffffffffffffffffffffffffffffffffff1673ffffffffffffffffffffffffffffffffffffffff168152602001908152602001600020838154811061074757fe5b90600052602060002001548161075957fe5b046301e3373102028201915080806001019150506105fa565b50600260003373ffffffffffffffffffffffffffffffffffffffff1673ffffffffffffffffffffffffffffffffffffffff1681526020019081526020016000206001600260003373ffffffffffffffffffffffffffffffffffffffff1673ffffffffffffffffffffffffffffffffffffffff16815260200190815260200160002080549050038154811061080257fe5b90600052602060002001544203662386f26fc10000600160003373ffffffffffffffffffffffffffffffffffffffff1673ffffffffffffffffffffffffffffffffffffffff16815260200190815260200160002060018060003373ffffffffffffffffffffffffffffffffffffffff1673ffffffffffffffffffffffffffffffffffffffff1681526020019081526020016000208054905003815481106108a557fe5b9060005260206000200154816108b757fe5b046301e337310202810190506000809054906101000a900473ffffffffffffffffffffffffffffffffffffffff1673ffffffffffffffffffffffffffffffffffffffff166340c10f1933836040518363ffffffff1660e01b8152600401808373ffffffffffffffffffffffffffffffffffffffff1673ffffffffffffffffffffffffffffffffffffffff16815260200182815260200192505050600060405180830381600087803b15801561096b57600080fd5b505af115801561097f573d6000803e3d6000fd5b505050505090565b662386f26fc1000034101561099b57600080fd5b60001515600360003373ffffffffffffffffffffffffffffffffffffffff1673ffffffffffffffffffffffffffffffffffffffff16815260200190815260200160002060009054906101000a900460ff1615151415610b8157600160003373ffffffffffffffffffffffffffffffffffffffff1673ffffffffffffffffffffffffffffffffffffffff1681526020019081526020016000203490806001815401808255809150509060018203906000526020600020016000909192909190915055506001600360003373ffffffffffffffffffffffffffffffffffffffff1673ffffffffffffffffffffffffffffffffffffffff16815260200190815260200160002060006101000a81548160ff021916908315150217905550600260003373ffffffffffffffffffffffffffffffffffffffff1673ffffffffffffffffffffffffffffffffffffffff1681526020019081526020016000204290806001815401808255809150509060018203906000526020600020016000909192909190915055503373ffffffffffffffffffffffffffffffffffffffff167f36af321ec8d3c75236829c5317affd40ddb308863a1236d2d277a4025cccee1e34344260405180848152602001838152602001828152602001935050505060405180910390a2610daf565b60011515600360003373ffffffffffffffffffffffffffffffffffffffff1673ffffffffffffffffffffffffffffffffffffffff16815260200190815260200160002060009054906101000a900460ff1615151415610dae576000600160003373ffffffffffffffffffffffffffffffffffffffff1673ffffffffffffffffffffffffffffffffffffffff16815260200190815260200160002060018060003373ffffffffffffffffffffffffffffffffffffffff1673ffffffffffffffffffffffffffffffffffffffff168152602001908152602001600020805490500381548110610c6a57fe5b906000526020600020015490503481019050600160003373ffffffffffffffffffffffffffffffffffffffff1673ffffffffffffffffffffffffffffffffffffffff168152602001908152602001600020819080600181540180825580915050906001820390600052602060002001600090919290919091505550600260003373ffffffffffffffffffffffffffffffffffffffff1673ffffffffffffffffffffffffffffffffffffffff1681526020019081526020016000204290806001815401808255809150509060018203906000526020600020016000909192909190915055503373ffffffffffffffffffffffffffffffffffffffff167f36af321ec8d3c75236829c5317affd40ddb308863a1236d2d277a4025cccee1e34834260405180848152602001838152602001828152602001935050505060405180910390a2505b5b565b60036020528060005260406000206000915054906101000a900460ff168156fea265627a7a723158202068df8fd2c014ce7c0bcd1817cd2315ed6ed3ce678b8736df7c80a04b526b3064736f6c63430005100032",
  "source": "pragma solidity >=0.5.0 <0.9.0;\r\n\r\nimport \"./Token.sol\";\r\n\r\ncontract Defi_Bank {\r\n    \r\n  Token private token;\r\n  event Deposit(address indexed user, uint amountDeposited, uint totalAmount, uint time);\r\n  event Withdraw(address indexed user, uint amountWithdrawn, uint totalAmount, uint time);\r\n  event EarnInterest(address indexed user, uint depositTime, uint interest);\r\n\r\n  constructor(Token _token) public { // Here, when you input the smart contract what you\r\n  // do in reality is inputting its address. Token variable is a smart contract variable\r\n  // that we defined above. But _token will be the address of the smart contract that\r\n  // we want to input here.\r\n    token = _token;\r\n  }\r\n\r\n  mapping(address => uint[]) public depositUpdateAmount;\r\n  mapping(address => uint[]) public depositUpdateTime;\r\n  mapping(address => bool) public earningInterest;\r\n\r\n  function deposit() payable public {\r\n    require(msg.value >= 1e16); // Minimum deposit amount is 0.01 ether. Remember, 1 ether = 1e18 wei.\r\n    if(earningInterest[msg.sender] == false) {\r\n      depositUpdateAmount[msg.sender].push(msg.value);\r\n      earningInterest[msg.sender] = true;\r\n      depositUpdateTime[msg.sender].push(block.timestamp);\r\n      emit Deposit(msg.sender, msg.value, msg.value, block.timestamp);\r\n    }\r\n    else if(earningInterest[msg.sender] == true) {\r\n      uint totalAmount = depositUpdateAmount[msg.sender][(depositUpdateAmount[msg.sender].length - 1)];\r\n      totalAmount = totalAmount + msg.value;\r\n      depositUpdateAmount[msg.sender].push(totalAmount); \r\n      depositUpdateTime[msg.sender].push(block.timestamp);\r\n      emit Deposit(msg.sender, msg.value, totalAmount, block.timestamp);\r\n    }\r\n  }\r\n\r\n  function withdraw(uint _amount) public {\r\n    require(earningInterest[msg.sender] == true);\r\n    require( _amount <= depositUpdateAmount[msg.sender][(depositUpdateAmount[msg.sender].length - 1)] );\r\n    uint amountWithdrawn = _amount;\r\n    msg.sender.transfer(amountWithdrawn);\r\n    uint amountLeft = depositUpdateAmount[msg.sender][(depositUpdateAmount[msg.sender].length - 1)] - amountWithdrawn; \r\n    depositUpdateAmount[msg.sender].push(amountLeft);\r\n    depositUpdateTime[msg.sender].push(block.timestamp);\r\n    if(amountLeft == 0) {\r\n        earningInterest[msg.sender] = false;\r\n    }\r\n    emit Withdraw(msg.sender, amountWithdrawn, amountLeft, block.timestamp); \r\n  }\r\n\r\n  function earnInterest() public returns(uint) {\r\n    // 10% APY\r\n    // In Solidity the time is designated in seconds.\r\n    // 31668017 is the interest (10% APY) per second for minimum deposit amount (0.01 ETH)\r\n    // because 1e15 (10% of 0.01 ETH) / 31577600 (seconds in 365.25 days)\r\n    uint totalInterestEarned;\r\n    for(uint i = 0; i < (depositUpdateTime[msg.sender].length - 1); i++) {\r\n    totalInterestEarned = totalInterestEarned + ( 31668017 * (depositUpdateAmount[msg.sender][i] / 1e16) * (depositUpdateTime[msg.sender][i+1] - depositUpdateTime[msg.sender][i]) ); \r\n    }\r\n    totalInterestEarned = totalInterestEarned + ( 31668017 * (depositUpdateAmount[msg.sender][(depositUpdateAmount[msg.sender].length - 1)] / 1e16) * (block.timestamp - depositUpdateTime[msg.sender][(depositUpdateTime[msg.sender].length - 1)]) );\r\n    token.mint(msg.sender, totalInterestEarned);\r\n  }  \r\n\r\n}",
  "sourcePath": "C:\\Users\\lenovo 50-70\\Documents\\Learning_Blockchain\\My_Dapps_Smart_Contracts\\My_Own\\DeFi_Bank\\src\\contracts\\Defi_Bank.sol",
  "compiler": {
    "name": "solc",
    "version": "0.5.16+commit.9c3226ce.Emscripten.clang"
  },
  "schemaVersion": "3.2.0",
  "updatedAt": "2022-04-25T00:54:09.910Z",
  "devdoc": {
    "methods": {}
  },
  "userdoc": {
    "methods": {}
  }
}